S01000006578616D706C65322E73726563F6
S11300000C942A000C9447000C9447000C9447006D
S11300100C9447000C9447000C9447000C94470040
S11300200C9447000C9447000C9447000C94470030
S11300300C9447000C9447000C9447000C94470020
S11300400C9447000C9447000C9447000C94470010
S11300500C94470011241FBECFE5D8E0DEBFCDBF0E
S113006010E0A0E6B0E0E4EFF4E002C005900D92E9
S1130070A036B107D9F710E0A0E6B0E001C01D92A8
S1130080A036B107E1F70E9420020C9478020C9488
S11300900000843409F471C0853448F4823499F141
S11300A0833408F04DC0813409F083C00FC0823618
S11300B051F1833620F4813609F07BC007C08336C2
S11300C009F43EC0843609F074C057C0413069F465
S11300D02AB381E090E0AC0102C0440F551F6A9539
S11300E0E2F7BA01622B6ABB08952AB381E090E07B
S11300F0AC0102C0440F551F6A95E2F7BA0160953E
S113010062236ABB0895413069F427B381E090E02B
S1130110AC0102C0440F551F6A95E2F7BA01622B85
S113012067BB089527B381E090E0AC0102C0440F9F
S1130130551F6A95E2F7BA016095622367BB08957B
S1130140413069F424B381E090E0AC0102C0440F73
S1130150551F6A95E2F7BA01622B64BB089524B374
S113016081E090E0AC0102C0440F551F6A95E2F7AC
S1130170BA016095622364BB0895413069F421B3E8
S113018081E090E0AC0102C0440F551F6A95E2F78C
S1130190BA01622B61BB089521B381E090E0AC0108
S11301A002C0440F551F6A95E2F7BA0160956223B5
S11301B061BB0895843409F471C0853448F48234F1
S11301C099F1833408F04DC0813409F083C00FC025
S11301D0823651F1833620F4813609F07BC007C0A2
S11301E0833609F43EC0843609F074C057C04130E8
S11301F069F42BB381E090E0AC0102C0440F551FB9
S11302006A95E2F7BA01622B6BBB08952BB381E0C8
S113021090E0AC0102C0440F551F6A95E2F7BA01A1
S1130220609562236BBB0895413069F428B381E083
S113023090E0AC0102C0440F551F6A95E2F7BA0181
S1130240622B68BB089528B381E090E0AC0102C042
S1130250440F551F6A95E2F7BA016095622368BBA3
S11302600895413069F425B381E090E0AC0102C007
S1130270440F551F6A95E2F7BA01622B65BB0895D6
S113028025B381E090E0AC0102C0440F551F6A958C
S1130290E2F7BA016095622365BB0895413069F4C1
S11302A022B381E090E0AC0102C0440F551F6A956F
S11302B0E2F7BA01622B62BB089522B381E090E0B9
S11302C0AC0102C0440F551F6A95E2F7BA0160956C
S11302D0622362BB0895843409F43DC0853440F43C
S11302E08234F9F0833450F5813409F040C00CC0F5
S11302F08236B9F0833618F48136C9F505C08336E1
S1130300E9F08436A1F527C02BB381E090E0AC017D
S113031002C0440F551F6A95E2F7BA0162276BBB0E
S1130320089528B381E090E0AC0102C0440F551F4A
S11303306A95E2F7BA01622768BB089525B381E0A4
S113034090E0AC0102C0440F551F6A95E2F7BA0170
S1130350622765BB089522B381E090E0AC0102C03E
S1130360440F551F6A95E2F7BA01622762BB0895EC
S1130370843409F451C0853440F4823439F183342F
S1130380C0F5813409F05AC00EC08236F9F08336C4
S113039020F4813609F052C006C0833651F1843608
S11303A009F04CC039C029B381E090E0062E02C0A8
S11303B0880F991F0A94E2F730E08223932302C046
S11303C0959587956A95E2F7982F38C026B381E012
S11303D090E0062E02C0880F991F0A94E2F730E0DD
S11303E08223932302C0959587956A95E2F7982F07
S11303F025C023B381E090E0062E02C0880F991F28
S11304000A94E2F730E08223932302C095958795FE
S11304106A95E2F7982F12C020B381E090E0062E8F
S113042002C0880F991F0A94E2F730E082239323D5
S113043002C0959587956A95E2F7982F892F0895BC
S113044084E460E00E94660284E461E00E94660243
S113045084E462E00E94660284E463E00E9466022F
S113046084E464E00E94660284E465E00E9466021B
S113047084E466E00E94660284E467E00E94660207
S1130480C0E0D7E010E00EC084E46C2F0E946A0242
S11304908FE79AE1A6E081509040A040E1F700C0C8
S11304A00000CF5FC83084F3CD2F84E46C2F0E940A
S11304B06E028FE79AE1A6E081509040A040E1F7F8
S11304C000C00000C15088F7C12FECCF41E00E946A
S11304D04900089541E00E94DA00089540E00E9436
S11304E0DA0008950E946B0108950E94B8010895EE
S10704F0F894FFCFAA
S9030000FC
